:0C08CC00E4FFE4FE0EBE1DFC0FBF0AF6A8
:0108D80022FD
:0208A800AD079A
:1008AA007C0AECD394004012EC9414500D1208CC3C
:1008BA00EDB5B0031C80EB0C80E8EC7002FF227FE0
:0108CA00012C
:0108CB00220A
:0B08E500BF0104E4F5A02275A0FF2273
:0608000075B0FFE4F5A055
:10080600E4F508AF0B1208A8EF7050AFB0EF2481E3
:10081600604324C0603524E0602C24F0602324F873
:10082600601A24FC601124FE600814702EE4F5089A
:1008360080297508028024750804801F75080680C3
:100846001A750808801575080A8010E508640A609C
:100856000A05088006E5086002150885B00B7509CB
:1008660001E509D3950850187F011208E5750A01BC
:100876001208CC050AE50AD3940140F4050980E183
:10088600E509D3940A4003020806E4FF1208E57559
:100896000A011208CC050AE50AD3940140F40509B9
:0208A60080DEF2
:030000000208D91A
:0C08D900787FE4F6D8FD75810B02080062
:00000001FF
